{
  "contractName": "LiquidityPool",
  "abi": [
    {
      "inputs": [],
      "stateMutability": "nonpayable",
      "type": "constructor"
    },
    {
      "anonymous": false,
      "inputs": [
        {
          "indexed": true,
          "internalType": "address",
          "name": "previousOwner",
          "type": "address"
        },
        {
          "indexed": true,
          "internalType": "address",
          "name": "newOwner",
          "type": "address"
        }
      ],
      "name": "OwnershipTransferred",
      "type": "event"
    },
    {
      "anonymous": false,
      "inputs": [
        {
          "indexed": false,
          "internalType": "address",
          "name": "_opAddress",
          "type": "address"
        },
        {
          "indexed": false,
          "internalType": "uint256",
          "name": "_opAmount",
          "type": "uint256"
        },
        {
          "indexed": false,
          "internalType": "uint256",
          "name": "_opType",
          "type": "uint256"
        }
      ],
      "name": "PoolEvent",
      "type": "event"
    },
    {
      "anonymous": false,
      "inputs": [
        {
          "indexed": false,
          "internalType": "address",
          "name": "_helperAddress",
          "type": "address"
        }
      ],
      "name": "TeamHelper",
      "type": "event"
    },
    {
      "inputs": [],
      "name": "owner",
      "outputs": [
        {
          "internalType": "address",
          "name": "",
          "type": "address"
        }
      ],
      "stateMutability": "view",
      "type": "function",
      "constant": true
    },
    {
      "inputs": [],
      "name": "renounceOwnership",
      "outputs": [],
      "stateMutability": "nonpayable",
      "type": "function"
    },
    {
      "inputs": [
        {
          "internalType": "address",
          "name": "newOwner",
          "type": "address"
        }
      ],
      "name": "transferOwnership",
      "outputs": [],
      "stateMutability": "nonpayable",
      "type": "function"
    },
    {
      "inputs": [
        {
          "internalType": "address",
          "name": "_address",
          "type": "address"
        }
      ],
      "name": "addTeamHelper",
      "outputs": [],
      "stateMutability": "nonpayable",
      "type": "function"
    },
    {
      "inputs": [
        {
          "internalType": "address",
          "name": "_address",
          "type": "address"
        }
      ],
      "name": "removeTeamHelper",
      "outputs": [],
      "stateMutability": "nonpayable",
      "type": "function"
    },
    {
      "inputs": [],
      "name": "depositStake",
      "outputs": [],
      "stateMutability": "payable",
      "type": "function",
      "payable": true
    },
    {
      "inputs": [],
      "name": "distributeReward",
      "outputs": [],
      "stateMutability": "payable",
      "type": "function",
      "payable": true
    },
    {
      "inputs": [],
      "name": "withdrawStakeAndReward",
      "outputs": [],
      "stateMutability": "payable",
      "type": "function",
      "payable": true
    },
    {
      "inputs": [
        {
          "internalType": "address",
          "name": "_address",
          "type": "address"
        }
      ],
      "name": "getParticipantStake",
      "outputs": [
        {
          "internalType": "uint256",
          "name": "",
          "type": "uint256"
        }
      ],
      "stateMutability": "view",
      "type": "function",
      "constant": true
    },
    {
      "inputs": [],
      "name": "getTotalStake",
      "outputs": [
        {
          "internalType": "uint256",
          "name": "",
          "type": "uint256"
        }
      ],
      "stateMutability": "view",
      "type": "function",
      "constant": true
    },
    {
      "inputs": [],
      "name": "getTotalRewards",
      "outputs": [
        {
          "internalType": "uint256",
          "name": "",
          "type": "uint256"
        }
      ],
      "stateMutability": "view",
      "type": "function",
      "constant": true
    },
    {
      "inputs": [
        {
          "internalType": "address",
          "name": "_address",
          "type": "address"
        }
      ],
      "name": "getParticipantEstimatedReward",
      "outputs": [
        {
          "internalType": "uint256",
          "name": "",
          "type": "uint256"
        }
      ],
      "stateMutability": "view",
      "type": "function",
      "constant": true
    }
  ],
  "bytecode": "0x608060405234801561001057600080fd5b5061002d61002261004a60201b60201c565b61005260201b60201c565b600060018190555060006002819055506000600381905550610116565b600033905090565b60008060009054906101000a900473ffffffffffffffffffffffffffffffffffffffff169050816000806101000a81548173ffffffffffffffffffffffffffffffffffffffff021916908373ffffffffffffffffffffffffffffffffffffffff1602179055508173ffffffffffffffffffffffffffffffffffffffff168173ffffffffffffffffffffffffffffffffffffffff167f8be0079c531659141344cd1fd0a4f28419497f9722a3daafe3b4186f6b6457e060405160405180910390a35050565b611434806101256000396000f3fe6080604052600436106100a75760003560e01c80638da5cb5b116100645780638da5cb5b146101875780638f73c5ae146101b257806394b292c8146101bc578063d5a1ba4f146101f9578063e627f2db14610203578063f2fde38b1461022e576100a7565b80630d2d76a2146100ac578063482b244d146100b65780635651eaff146100df578063715018a6146101085780637283dc371461011f5780637bc742251461015c575b600080fd5b6100b4610257565b005b3480156100c257600080fd5b506100dd60048036038101906100d89190610ed5565b6103ac565b005b3480156100eb57600080fd5b5061010660048036038101906101019190610ed5565b6104ba565b005b34801561011457600080fd5b5061011d610591565b005b34801561012b57600080fd5b5061014660048036038101906101419190610ed5565b610619565b6040516101539190610f1b565b60405180910390f35b34801561016857600080fd5b50610171610742565b60405161017e9190610f1b565b60405180910390f35b34801561019357600080fd5b5061019c61074c565b6040516101a99190610f45565b60405180910390f35b6101ba610775565b005b3480156101c857600080fd5b506101e360048036038101906101de9190610ed5565b6108fa565b6040516101f09190610f1b565b60405180910390f35b610201610946565b005b34801561020f57600080fd5b50610218610ca4565b6040516102259190610f1b565b60405180910390f35b34801561023a57600080fd5b5061025560048036038101906102509190610ed5565b610cae565b005b34600460003373ffffffffffffffffffffffffffffffffffffffff1673ffffffffffffffffffffffffffffffffffffffff16815260200190815260200160002060000160008282546102a99190610f8f565b925050819055506000600460003373ffffffffffffffffffffffffffffffffffffffff1673ffffffffffffffffffffffffffffffffffffffff1681526020019081526020016000206002015414156103435742600460003373ffffffffffffffffffffffffffffffffffffffff1673ffffffffffffffffffffffffffffffffffffffff168152602001908152602001600020600201819055505b34600160008282546103559190610f8f565b925050819055507f185579bfb2970b9edb9659c587d8d8d137f30310df932aeffd151c5ebfd2b61533346000600281111561039357610392610fe5565b5b6040516103a293929190611014565b60405180910390a1565b6103b4610da6565b73ffffffffffffffffffffffffffffffffffffffff166103d261074c565b73ffffffffffffffffffffffffffffffffffffffff1614610428576040517f08c379a000000000000000000000000000000000000000000000000000000000815260040161041f906110a8565b60405180910390fd5b6001600560008373ffffffffffffffffffffffffffffffffffffffff1673ffffffffffffffffffffffffffffffffffffffff16815260200190815260200160002060006101000a81548160ff0219169083151502179055507ff757f8ce458b91ace289c49adfd48de6a395aae12a39ce79461c168b54cce1d3816040516104af9190610f45565b60405180910390a150565b6104c2610da6565b73ffffffffffffffffffffffffffffffffffffffff166104e061074c565b73ffffffffffffffffffffffffffffffffffffffff1614610536576040517f08c379a000000000000000000000000000000000000000000000000000000000815260040161052d906110a8565b60405180910390fd5b6000600560008373ffffffffffffffffffffffffffffffffffffffff1673ffffffffffffffffffffffffffffffffffffffff16815260200190815260200160002060006101000a81548160ff02191690831515021790555050565b610599610da6565b73ffffffffffffffffffffffffffffffffffffffff166105b761074c565b73ffffffffffffffffffffffffffffffffffffffff161461060d576040517f08c379a0000000000000000000000000000000000000000000000000000000008152600401610604906110a8565b60405180910390fd5b6106176000610dae565b565b60008060009050600354600460008573ffffffffffffffffffffffffffffffffffffffff1673ffffffffffffffffffffffffffffffffffffffff16815260200190815260200160002060020154111580156106b657506000600460008573ffffffffffffffffffffffffffffffffffffffff1673ffffffffffffffffffffffffffffffffffffffff16815260200190815260200160002060020154115b1561073957600060015460646002546106cf91906110c8565b6106d99190611151565b9050606481600460008773ffffffffffffffffffffffffffffffffffffffff1673ffffffffffffffffffffffffffffffffffffffff1681526020019081526020016000206000015461072b91906110c8565b6107359190611151565b9150505b80915050919050565b6000600154905090565b60008060009054906101000a900473ffffffffffffffffffffffffffffffffffffffff16905090565b61077d61074c565b73ffffffffffffffffffffffffffffffffffffffff163373ffffffffffffffffffffffffffffffffffffffff161480610806575060011515600560003373ffffffffffffffffffffffffffffffffffffffff1673ffffffffffffffffffffffffffffffffffffffff16815260200190815260200160002060009054906101000a900460ff161515145b610845576040517f08c379a000000000000000000000000000000000000000000000000000000000815260040161083c906111f4565b60405180910390fd5b60006001541161088a576040517f08c379a000000000000000000000000000000000000000000000000000000000815260040161088190611286565b60405180910390fd5b346002600082825461089c9190610f8f565b92505081905550426003819055507f185579bfb2970b9edb9659c587d8d8d137f30310df932aeffd151c5ebfd2b6153334600160028111156108e1576108e0610fe5565b5b6040516108f093929190611014565b60405180910390a1565b6000600460008373ffffffffffffffffffffffffffffffffffffffff1673ffffffffffffffffffffffffffffffffffffffff168152602001908152602001600020600001549050919050565b6000600460003373ffffffffffffffffffffffffffffffffffffffff1673ffffffffffffffffffffffffffffffffffffffff16815260200190815260200160002060000154116109cb576040517f08c379a00000000000000000000000000000000000000000000000000000000081526004016109c290611318565b60405180910390fd5b6000600354600460003373ffffffffffffffffffffffffffffffffffffffff1673ffffffffffffffffffffffffffffffffffffffff1681526020019081526020016000206002015411158015610a6357506000600460003373ffffffffffffffffffffffffffffffffffffffff1673ffffffffffffffffffffffffffffffffffffffff16815260200190815260200160002060020154115b15610ae65760006001546064600254610a7c91906110c8565b610a869190611151565b9050606481600460003373ffffffffffffffffffffffffffffffffffffffff1673ffffffffffffffffffffffffffffffffffffffff16815260200190815260200160002060000154610ad891906110c8565b610ae29190611151565b9150505b6000600460003373ffffffffffffffffffffffffffffffffffffffff1673ffffffffffffffffffffffffffffffffffffffff16815260200190815260200160002060000154905060008282610b3b9190610f8f565b90503373ffffffffffffffffffffffffffffffffffffffff166108fc829081150290604051600060405180830381858888f19350505050158015610b83573d6000803e3d6000fd5b5081600460003373ffffffffffffffffffffffffffffffffffffffff1673ffffffffffffffffffffffffffffffffffffffff1681526020019081526020016000206000016000828254610bd69190611338565b925050819055506000600460003373ffffffffffffffffffffffffffffffffffffffff1673ffffffffffffffffffffffffffffffffffffffff16815260200190815260200160002050508260026000828254610c329190611338565b925050819055508160016000828254610c4b9190611338565b925050819055507f185579bfb2970b9edb9659c587d8d8d137f30310df932aeffd151c5ebfd2b6153334600280811115610c8857610c87610fe5565b5b604051610c9793929190611014565b60405180910390a1505050565b6000600254905090565b610cb6610da6565b73ffffffffffffffffffffffffffffffffffffffff16610cd461074c565b73ffffffffffffffffffffffffffffffffffffffff1614610d2a576040517f08c379a0000000000000000000000000000000000000000000000000000000008152600401610d21906110a8565b60405180910390fd5b600073ffffffffffffffffffffffffffffffffffffffff168173ffffffffffffffffffffffffffffffffffffffff161415610d9a576040517f08c379a0000000000000000000000000000000000000000000000000000000008152600401610d91906113de565b60405180910390fd5b610da381610dae565b50565b600033905090565b60008060009054906101000a900473ffffffffffffffffffffffffffffffffffffffff169050816000806101000a81548173ffffffffffffffffffffffffffffffffffffffff021916908373ffffffffffffffffffffffffffffffffffffffff1602179055508173ffffffffffffffffffffffffffffffffffffffff168173ffffffffffffffffffffffffffffffffffffffff167f8be0079c531659141344cd1fd0a4f28419497f9722a3daafe3b4186f6b6457e060405160405180910390a35050565b600080fd5b600073ffffffffffffffffffffffffffffffffffffffff82169050919050565b6000610ea282610e77565b9050919050565b610eb281610e97565b8114610ebd57600080fd5b50565b600081359050610ecf81610ea9565b92915050565b600060208284031215610eeb57610eea610e72565b5b6000610ef984828501610ec0565b91505092915050565b6000819050919050565b610f1581610f02565b82525050565b6000602082019050610f306000830184610f0c565b92915050565b610f3f81610e97565b82525050565b6000602082019050610f5a6000830184610f36565b92915050565b7f4e487b7100000000000000000000000000000000000000000000000000000000600052601160045260246000fd5b6000610f9a82610f02565b9150610fa583610f02565b9250827fffffffffffffffffffffffffffffffffffffffffffffffffffffffffffffffff03821115610fda57610fd9610f60565b5b828201905092915050565b7f4e487b7100000000000000000000000000000000000000000000000000000000600052602160045260246000fd5b60006060820190506110296000830186610f36565b6110366020830185610f0c565b6110436040830184610f0c565b949350505050565b600082825260208201905092915050565b7f4f776e61626c653a2063616c6c6572206973206e6f7420746865206f776e6572600082015250565b600061109260208361104b565b915061109d8261105c565b602082019050919050565b600060208201905081810360008301526110c181611085565b9050919050565b60006110d382610f02565b91506110de83610f02565b9250817fffffffffffffffffffffffffffffffffffffffffffffffffffffffffffffffff048311821515161561111757611116610f60565b5b828202905092915050565b7f4e487b7100000000000000000000000000000000000000000000000000000000600052601260045260246000fd5b600061115c82610f02565b915061116783610f02565b92508261117757611176611122565b5b828204905092915050565b7f43616c6c6572206973206e6f7420746865206f776e6572206e6f72207061727460008201527f206f662074686520706f6f6c207465616d2e0000000000000000000000000000602082015250565b60006111de60328361104b565b91506111e982611182565b604082019050919050565b6000602082019050818103600083015261120d816111d1565b9050919050565b7f43616e6e6f74206469737472696275746520746f207374616b696e6720706f6f60008201527f6c20776974682030207374616b65000000000000000000000000000000000000602082015250565b6000611270602e8361104b565b915061127b82611214565b604082019050919050565b6000602082019050818103600083015261129f81611263565b9050919050565b7f5374616b65206e6f7420666f756e6420666f722074686520676976656e20616460008201527f6472657373000000000000000000000000000000000000000000000000000000602082015250565b600061130260258361104b565b915061130d826112a6565b604082019050919050565b60006020820190508181036000830152611331816112f5565b9050919050565b600061134382610f02565b915061134e83610f02565b92508282101561136157611360610f60565b5b828203905092915050565b7f4f776e61626c653a206e6577206f776e657220697320746865207a65726f206160008201527f6464726573730000000000000000000000000000000000000000000000000000602082015250565b60006113c860268361104b565b91506113d38261136c565b604082019050919050565b600060208201905081810360008301526113f7816113bb565b905091905056fea2646970667358221220bd3f740d873c1f7e383b2b6f487cc9a96e7d86a5f8b1e89e51b2c556274a136864736f6c634300080a0033",
  "immutableReferences": {},
  "source": "// SPDX-License-Identifier: MIT\n\npragma solidity ^0.8.0;\n\nimport \"@openzeppelin/contracts/access/Ownable.sol\";\n\ncontract LiquidityPool is Ownable{\n\n    uint totalStake;\n    uint totalRewards;\n    uint lastRewardDate;\n    \n    struct participantStakes{\n        uint stake;\n        uint rewardToParticipant;\n        uint entryDate;\n    }\n\n    mapping (address => participantStakes) participant;\n\n    enum PoolOperations {Deposit, Reward, Withdraw}\n\n    event PoolEvent(address _opAddress, uint _opAmount, uint _opType);\n\n    event TeamHelper(address _helperAddress);\n\n    constructor(){\n        totalStake = 0;\n        totalRewards = 0;\n        lastRewardDate = 0;\n    }\n\n    // Mapping and functions to manage ETH Pool Team Helper's addresses\n    mapping (address => bool) teamMember;\n\n    function addTeamHelper(address _address) public onlyOwner{\n        teamMember[_address] = true;\n        emit TeamHelper(_address);\n    }\n\n    function removeTeamHelper(address _address) public onlyOwner{\n        teamMember[_address] = false;\n    }\n\n    modifier onlyOwnerOrHelper() {\n        require(msg.sender == owner() || teamMember[msg.sender] == true, \"Caller is not the owner nor part of the pool team.\");\n        _;\n    }\n\n    // Deposit stake\n    // Increases the stake of sender address by sent amount \n    // If address is new to the pool, asociates that first transaction block's timestamp\n    // with and entry date\n    function depositStake() public payable{\n        participant[msg.sender].stake += msg.value;\n        if (participant[msg.sender].entryDate == 0 ){\n            participant[msg.sender].entryDate = block.timestamp;\n        }\n        totalStake += msg.value;\n        emit PoolEvent(msg.sender, msg.value, uint(PoolOperations.Deposit));\n    }\n\n    // Deposit rewards by the owner or team members.    \n    function distributeReward() public payable onlyOwnerOrHelper {\n        require(totalStake > 0, \"Cannot distribute to staking pool with 0 stake\");\n        totalRewards += msg.value;\n        lastRewardDate = block.timestamp;\n        emit PoolEvent(msg.sender, msg.value, uint(PoolOperations.Reward));\n    }\n\n    // Withdraw function. \n    function withdrawStakeAndReward() public payable{\n        require(participant[msg.sender].stake > 0, \"Stake not found for the given address\");\n        \n        uint withdrawRewardAmount = 0;\n        \n        if (participant[msg.sender].entryDate <= lastRewardDate && participant[msg.sender].entryDate > 0){\n            // Multiply for 100 to work with integer numbers \n            uint rewardsPerToken = totalRewards * 100 /totalStake;\n            withdrawRewardAmount = participant[msg.sender].stake * rewardsPerToken / 100;\n        } \n        \n        uint withdrawStakeAmount = participant[msg.sender].stake;\n        \n        uint totalWithdraw = withdrawStakeAmount + withdrawRewardAmount;\n        payable(msg.sender).transfer(totalWithdraw);\n        participant[msg.sender].stake -= withdrawStakeAmount;\n        participant[msg.sender].entryDate == 0;\n        totalRewards -= withdrawRewardAmount;\n        totalStake -= withdrawStakeAmount;\n        emit PoolEvent(msg.sender, msg.value, uint(PoolOperations.Withdraw));\n    }\n\n    // Getter functions\n\n    // Participant's stake\n    function getParticipantStake(address _address) public view returns (uint){\n        return participant[_address].stake;\n    }\n    \n    // Contract's total stake\n    function getTotalStake() public view returns (uint){\n        return totalStake;\n    }\n\n    // Contract's total rewards\n    function getTotalRewards() public view returns (uint){\n        return totalRewards;\n    }\n    \n    // Participant's estimated rewards\n    function getParticipantEstimatedReward(address _address) public view returns (uint){        \n        uint withdrawRewardAmount = 0;\n\n        if (participant[_address].entryDate <= lastRewardDate && participant[_address].entryDate > 0){\n            uint rewardsPerToken = totalRewards * 100 /totalStake;\n            withdrawRewardAmount = participant[_address].stake * rewardsPerToken / 100;\n        } \n\n        return withdrawRewardAmount;\n    }\n}",
  "sourcePath": "/home/andres/Proyectos/smart_contracts/challenge/contracts/LiquidityPool.sol",
  "compiler": {
    "name": "solc",
    "version": "0.8.10+commit.fc410830.Emscripten.clang"
  },
  "schemaVersion": "3.4.3",
  "updatedAt": "2021-12-20T14:19:03.632Z",
  "networkType": "ethereum",
  "devdoc": {
    "kind": "dev",
    "methods": {
      "owner()": {
        "details": "Returns the address of the current owner."
      },
      "renounceOwnership()": {
        "details": "Leaves the contract without owner. It will not be possible to call `onlyOwner` functions anymore. Can only be called by the current owner. NOTE: Renouncing ownership will leave the contract without an owner, thereby removing any functionality that is only available to the owner."
      },
      "transferOwnership(address)": {
        "details": "Transfers ownership of the contract to a new account (`newOwner`). Can only be called by the current owner."
      }
    },
    "version": 1
  },
  "userdoc": {
    "kind": "user",
    "methods": {},
    "version": 1
  }
}